{
  "contractName": "IncidentReport",
  "abi": [
    {
      "constant": true,
      "inputs": [],
      "name": "reportCount",
      "outputs": [
        {
          "name": "",
          "type": "uint256"
        }
      ],
      "payable": false,
      "stateMutability": "view",
      "type": "function"
    },
    {
      "constant": true,
      "inputs": [
        {
          "name": "",
          "type": "address"
        }
      ],
      "name": "admins",
      "outputs": [
        {
          "name": "",
          "type": "bool"
        }
      ],
      "payable": false,
      "stateMutability": "view",
      "type": "function"
    },
    {
      "constant": true,
      "inputs": [
        {
          "name": "",
          "type": "address"
        }
      ],
      "name": "balanceOf",
      "outputs": [
        {
          "name": "",
          "type": "uint256"
        }
      ],
      "payable": false,
      "stateMutability": "view",
      "type": "function"
    },
    {
      "constant": true,
      "inputs": [
        {
          "name": "",
          "type": "address"
        }
      ],
      "name": "users",
      "outputs": [
        {
          "name": "",
          "type": "string"
        }
      ],
      "payable": false,
      "stateMutability": "view",
      "type": "function"
    },
    {
      "constant": true,
      "inputs": [
        {
          "name": "",
          "type": "uint256"
        }
      ],
      "name": "reports",
      "outputs": [
        {
          "name": "reporter",
          "type": "address"
        },
        {
          "name": "ipfsHash",
          "type": "string"
        },
        {
          "name": "dateReported",
          "type": "uint32"
        },
        {
          "name": "status",
          "type": "uint8"
        },
        {
          "name": "dateAcked",
          "type": "uint32"
        },
        {
          "name": "dateSolved",
          "type": "uint32"
        },
        {
          "name": "anon",
          "type": "bool"
        }
      ],
      "payable": false,
      "stateMutability": "view",
      "type": "function"
    },
    {
      "inputs": [],
      "payable": false,
      "stateMutability": "nonpayable",
      "type": "constructor"
    },
    {
      "constant": false,
      "inputs": [
        {
          "name": "_userId",
          "type": "string"
        }
      ],
      "name": "addUser",
      "outputs": [],
      "payable": false,
      "stateMutability": "nonpayable",
      "type": "function"
    },
    {
      "constant": false,
      "inputs": [
        {
          "name": "_hash",
          "type": "string"
        },
        {
          "name": "_anon",
          "type": "bool"
        }
      ],
      "name": "issueReport",
      "outputs": [],
      "payable": false,
      "stateMutability": "nonpayable",
      "type": "function"
    },
    {
      "constant": false,
      "inputs": [
        {
          "name": "_reportId",
          "type": "uint64"
        }
      ],
      "name": "ackReport",
      "outputs": [],
      "payable": false,
      "stateMutability": "nonpayable",
      "type": "function"
    },
    {
      "constant": false,
      "inputs": [
        {
          "name": "_reportId",
          "type": "uint64"
        }
      ],
      "name": "solveReport",
      "outputs": [],
      "payable": false,
      "stateMutability": "nonpayable",
      "type": "function"
    },
    {
      "constant": false,
      "inputs": [
        {
          "name": "_newAdmin",
          "type": "address"
        }
      ],
      "name": "addAdmin",
      "outputs": [],
      "payable": false,
      "stateMutability": "nonpayable",
      "type": "function"
    }
  ],
  "bytecode": "0x60806040523480156200001157600080fd5b506001600260003373ffffffffffffffffffffffffffffffffffffffff1673ffffffffffffffffffffffffffffffffffffffff16815260200190815260200160002060006101000a81548160ff0219169083151502179055506040518060400160405280600581526020017f61646d696e000000000000000000000000000000000000000000000000000000815250600160003373ffffffffffffffffffffffffffffffffffffffff1673ffffffffffffffffffffffffffffffffffffffff1681526020019081526020016000209080519060200190620000f4929190620000fb565b50620001aa565b828054600181600116156101000203166002900490600052602060002090601f016020900481019282601f106200013e57805160ff19168380011785556200016f565b828001600101855582156200016f579182015b828111156200016e57825182559160200191906001019062000151565b5b5090506200017e919062000182565b5090565b620001a791905b80821115620001a357600081600090555060010162000189565b5090565b90565b61126980620001ba6000396000f3fe608060405234801561001057600080fd5b506004361061009e5760003560e01c806370a082311161006657806370a08231146102e357806382b16bda1461033b578063a87430ba14610373578063c942adf714610430578063dd7e143f146105635761009e565b8063162b3b2d146100a3578063185c6f841461016a57806318b8275a14610188578063429b62e514610243578063704802751461029f575b600080fd5b610168600480360360408110156100b957600080fd5b81019080803590602001906401000000008111156100d657600080fd5b8201836020820111156100e857600080fd5b8035906020019184600183028401116401000000008311171561010a57600080fd5b91908080601f016020809104026020016040519081016040528093929190818152602001838380828437600081840152601f19601f82011690508083019250505050505050919291929080351515906020019092919050505061059b565b005b6101726107f0565b6040518082815260200191505060405180910390f35b6102416004803603602081101561019e57600080fd5b81019080803590602001906401000000008111156101bb57600080fd5b8201836020820111156101cd57600080fd5b803590602001918460018302840111640100000000831117156101ef57600080fd5b91908080601f016020809104026020016040519081016040528093929190818152602001838380828437600081840152601f19601f8201169050808301925050505050505091929192905050506107f6565b005b6102856004803603602081101561025957600080fd5b81019080803573ffffffffffffffffffffffffffffffffffffffff1690602001909291905050506109b7565b604051808215151515815260200191505060405180910390f35b6102e1600480360360208110156102b557600080fd5b81019080803573ffffffffffffffffffffffffffffffffffffffff1690602001909291905050506109d7565b005b610325600480360360208110156102f957600080fd5b81019080803573ffffffffffffffffffffffffffffffffffffffff169060200190929190505050610adf565b6040518082815260200191505060405180910390f35b6103716004803603602081101561035157600080fd5b81019080803567ffffffffffffffff169060200190929190505050610af7565b005b6103b56004803603602081101561038957600080fd5b81019080803573ffffffffffffffffffffffffffffffffffffffff169060200190929190505050610c96565b6040518080602001828103825283818151815260200191508051906020019080838360005b838110156103f55780820151818401526020810190506103da565b50505050905090810190601f1680156104225780820380516001836020036101000a031916815260200191505b509250505060405180910390f35b61045c6004803603602081101561044657600080fd5b8101908080359060200190929190505050610d46565b604051808873ffffffffffffffffffffffffffffffffffffffff1673ffffffffffffffffffffffffffffffffffffffff168152602001806020018763ffffffff1663ffffffff1681526020018660028111156104b457fe5b60ff1681526020018563ffffffff1663ffffffff1681526020018463ffffffff1663ffffffff16815260200183151515158152602001828103825288818151815260200191508051906020019080838360005b83811015610522578082015181840152602081019050610507565b50505050905090810190601f16801561054f5780820380516001836020036101000a031916815260200191505b509850505050505050505060405180910390f35b6105996004803603602081101561057957600080fd5b81019080803567ffffffffffffffff169060200190929190505050610e8a565b005b6001600360003373ffffffffffffffffffffffffffffffffffffffff1673ffffffffffffffffffffffffffffffffffffffff1681526020019081526020016000205410156105e857600080fd5b6001600360003373ffffffffffffffffffffffffffffffffffffffff1673ffffffffffffffffffffffffffffffffffffffff168152602001908152602001600020600082825403925050819055506004600081548092919060010191905055506040518060e001604052803373ffffffffffffffffffffffffffffffffffffffff1681526020018381526020014263ffffffff1681526020016000600281111561068e57fe5b8152602001600063ffffffff168152602001600063ffffffff168152602001821515815250600080600454815260200190815260200160002060008201518160000160006101000a81548173ffffffffffffffffffffffffffffffffffffffff021916908373ffffffffffffffffffffffffffffffffffffffff160217905550602082015181600101908051906020019061072a929190611118565b5060408201518160020160006101000a81548163ffffffff021916908363ffffffff16021790555060608201518160020160046101000a81548160ff0219169083600281111561077657fe5b021790555060808201518160020160056101000a81548163ffffffff021916908363ffffffff16021790555060a08201518160020160096101000a81548163ffffffff021916908363ffffffff16021790555060c082015181600201600d6101000a81548160ff0219169083151502179055509050505050565b60045481565b6108e6600160003373ffffffffffffffffffffffffffffffffffffffff1673ffffffffffffffffffffffffffffffffffffffff1681526020019081526020016000208054600181600116156101000203166002900480601f0160208091040260200160405190810160405280929190818152602001828054600181600116156101000203166002900480156108cc5780601f106108a1576101008083540402835291602001916108cc565b820191906000526020600020905b8154815290600101906020018083116108af57829003601f168201915b505050505060405180602001604052806000815250611029565b6108ef57600080fd5b6109088160405180602001604052806000815250611029565b1561091257600080fd5b80600160003373ffffffffffffffffffffffffffffffffffffffff1673ffffffffffffffffffffffffffffffffffffffff1681526020019081526020016000209080519060200190610965929190611198565b506002600360003373ffffffffffffffffffffffffffffffffffffffff1673ffffffffffffffffffffffffffffffffffffffff1681526020019081526020016000206000828254019250508190555050565b60026020528060005260406000206000915054906101000a900460ff1681565b600260003373ffffffffffffffffffffffffffffffffffffffff1673ffffffffffffffffffffffffffffffffffffffff16815260200190815260200160002060009054906101000a900460ff16610a2d57600080fd5b600260008273ffffffffffffffffffffffffffffffffffffffff1673ffffffffffffffffffffffffffffffffffffffff16815260200190815260200160002060009054906101000a900460ff1615610a8457600080fd5b6001600260008373ffffffffffffffffffffffffffffffffffffffff1673ffffffffffffffffffffffffffffffffffffffff16815260200190815260200160002060006101000a81548160ff02191690831515021790555050565b60036020528060005260406000206000915090505481565b600260003373ffffffffffffffffffffffffffffffffffffffff1673ffffffffffffffffffffffffffffffffffffffff16815260200190815260200160002060009054906101000a900460ff16610b4d57600080fd5b60008060008367ffffffffffffffff168152602001908152602001600020905060016002811115610b7a57fe5b8160020160049054906101000a900460ff166002811115610b9757fe5b14610ba157600080fd5b6005600360008360000160009054906101000a900473ffffffffffffffffffffffffffffffffffffffff1673ffffffffffffffffffffffffffffffffffffffff1673ffffffffffffffffffffffffffffffffffffffff1681526020019081526020016000206000828254019250508190555060026000808467ffffffffffffffff16815260200190815260200160002060020160046101000a81548160ff02191690836002811115610c4f57fe5b0217905550426000808467ffffffffffffffff16815260200190815260200160002060020160096101000a81548163ffffffff021916908363ffffffff1602179055505050565b60016020528060005260406000206000915090508054600181600116156101000203166002900480601f016020809104026020016040519081016040528092919081815260200182805460018160011615610100020316600290048015610d3e5780601f10610d1357610100808354040283529160200191610d3e565b820191906000526020600020905b815481529060010190602001808311610d2157829003601f168201915b505050505081565b60006020528060005260406000206000915090508060000160009054906101000a900473ffffffffffffffffffffffffffffffffffffffff1690806001018054600181600116156101000203166002900480601f016020809104026020016040519081016040528092919081815260200182805460018160011615610100020316600290048015610e185780601f10610ded57610100808354040283529160200191610e18565b820191906000526020600020905b815481529060010190602001808311610dfb57829003601f168201915b5050505050908060020160009054906101000a900463ffffffff16908060020160049054906101000a900460ff16908060020160059054906101000a900463ffffffff16908060020160099054906101000a900463ffffffff169080600201600d9054906101000a900460ff16905087565b600260003373ffffffffffffffffffffffffffffffffffffffff1673ffffffffffffffffffffffffffffffffffffffff16815260200190815260200160002060009054906101000a900460ff16610ee057600080fd5b60008060008367ffffffffffffffff168152602001908152602001600020905060006002811115610f0d57fe5b8160020160049054906101000a900460ff166002811115610f2a57fe5b14610f3457600080fd5b6001600360008360000160009054906101000a900473ffffffffffffffffffffffffffffffffffffffff1673ffffffffffffffffffffffffffffffffffffffff1673ffffffffffffffffffffffffffffffffffffffff1681526020019081526020016000206000828254019250508190555060016000808467ffffffffffffffff16815260200190815260200160002060020160046101000a81548160ff02191690836002811115610fe257fe5b0217905550426000808467ffffffffffffffff16815260200190815260200160002060020160056101000a81548163ffffffff021916908363ffffffff1602179055505050565b6000816040516020018082805190602001908083835b60208310611062578051825260208201915060208101905060208303925061103f565b6001836020036101000a03801982511681845116808217855250505050505090500191505060405160208183030381529060405280519060200120836040516020018082805190602001908083835b602083106110d457805182526020820191506020810190506020830392506110b1565b6001836020036101000a0380198251168184511680821785525050505050509050019150506040516020818303038152906040528051906020012014905092915050565b828054600181600116156101000203166002900490600052602060002090601f016020900481019282601f1061115957805160ff1916838001178555611187565b82800160010185558215611187579182015b8281111561118657825182559160200191906001019061116b565b5b5090506111949190611218565b5090565b828054600181600116156101000203166002900490600052602060002090601f016020900481019282601f106111d957805160ff1916838001178555611207565b82800160010185558215611207579182015b828111156112065782518255916020019190600101906111eb565b5b5090506112149190611218565b5090565b61123a91905b8082111561123657600081600090555060010161121e565b5090565b9056fea165627a7a72305820b2791f07dc5ec3cf132eeb8d8bd84f02381c04360fe319f286e43294ce8a77a90029",
  "source": "pragma solidity ^0.5.3;\n\ncontract IncidentReport {\n\n    enum IncidentStatus { REPORTED, ACKNOWLEDGED, SOLVED }\n\n    struct Report {\n        address reporter;\n        string ipfsHash;\n        uint32 dateReported;\n        IncidentStatus status;\n        uint32 dateAcked;\n        uint32 dateSolved;\n        bool anon;\n    }\n    \n    mapping(uint => Report) public reports;\n    mapping(address => string) public users;\n\tmapping (address => bool) public admins;\n\tmapping(address => uint256) public balanceOf;\n\n    uint public reportCount;\n    \n    function compareStringsbyBytes(string memory s1, string memory s2) internal pure returns(bool){\n        return keccak256(abi.encodePacked(s1)) == keccak256(abi.encodePacked(s2));\n    }\n    \n\tconstructor () public {\n\t\tadmins[msg.sender] = true;\n\t\tusers[msg.sender] = \"admin\";\n\t}\n\n    function addUser (string memory _userId) public {\n\t\trequire(compareStringsbyBytes(users[msg.sender], \"\"));\n\t\trequire(!compareStringsbyBytes(_userId, \"\"));\n        users[msg.sender] = _userId;\n\t\tbalanceOf[msg.sender] += 2;\n    }\n\n    function issueReport (string memory _hash, bool _anon) public {\n        require(balanceOf[msg.sender] >= 1);\n        balanceOf[msg.sender] -= 1;\n        reportCount ++;\n        reports[reportCount] = Report(msg.sender, _hash, uint32(now), IncidentStatus.REPORTED, 0, 0, _anon);\n    }\n   \n    function ackReport (uint64 _reportId) public {\n\t\trequire(admins[msg.sender]);\n        Report storage report = reports[_reportId];\n        require(report.status == IncidentStatus.REPORTED);\n        balanceOf[report.reporter] += 1;\n        reports[_reportId].status = IncidentStatus.ACKNOWLEDGED;\n        reports[_reportId].dateAcked = uint32(now);\n    }\n   \n    function solveReport (uint64 _reportId) public {\n\t\trequire(admins[msg.sender]);\n        Report storage report = reports[_reportId];\n\t\trequire(report.status == IncidentStatus.ACKNOWLEDGED);\n        balanceOf[report.reporter] += 5;\n        reports[_reportId].status = IncidentStatus.SOLVED;\n        reports[_reportId].dateSolved = uint32(now);\n    }\n\tfunction addAdmin (address _newAdmin) public {\n\t\trequire(admins[msg.sender]);\n\t\trequire(!admins[_newAdmin]);\n\t\tadmins[_newAdmin] = true;\n\t}   \n}\n\n",
  "sourcePath": "/home/sean/FYP/eth-react-ipfs/contracts/IncidentReport.sol",
  "compiler": {
    "name": "solc",
    "version": "0.5.8+commit.23d335f2.Emscripten.clang"
  },
  "schemaVersion": "3.0.11",
  "updatedAt": "2019-08-27T09:57:52.407Z",
  "devdoc": {
    "methods": {}
  },
  "userdoc": {
    "methods": {}
  }
}